{
  "contractName": "Ownable",
  "abi": [
    {
      "inputs": [],
      "payable": false,
      "stateMutability": "nonpayable",
      "type": "constructor"
    },
    {
      "anonymous": false,
      "inputs": [
        {
          "indexed": true,
          "name": "sender",
          "type": "address"
        },
        {
          "indexed": true,
          "name": "owner",
          "type": "address"
        }
      ],
      "name": "LogOwnerChange",
      "type": "event"
    },
    {
      "constant": true,
      "inputs": [],
      "name": "getOwner",
      "outputs": [
        {
          "name": "",
          "type": "address"
        }
      ],
      "payable": false,
      "stateMutability": "view",
      "type": "function"
    },
    {
      "constant": false,
      "inputs": [
        {
          "name": "newOwner",
          "type": "address"
        }
      ],
      "name": "setOwner",
      "outputs": [],
      "payable": false,
      "stateMutability": "nonpayable",
      "type": "function"
    }
  ],
  "bytecode": "0x608060405234801561001057600080fd5b50336000806101000a81548173ffffffffffffffffffffffffffffffffffffffff021916908373ffffffffffffffffffffffffffffffffffffffff160217905550610341806100606000396000f3fe608060405234801561001057600080fd5b50600436106100365760003560e01c806313af40351461003b578063893d20e81461007f575b600080fd5b61007d6004803603602081101561005157600080fd5b81019080803573ffffffffffffffffffffffffffffffffffffffff1690602001909291905050506100c9565b005b6100876102ec565b604051808273ffffffffffffffffffffffffffffffffffffffff1673ffffffffffffffffffffffffffffffffffffffff16815260200191505060405180910390f35b6000809054906101000a900473ffffffffffffffffffffffffffffffffffffffff1673ffffffffffffffffffffffffffffffffffffffff163373ffffffffffffffffffffffffffffffffffffffff161461018b576040517f08c379a000000000000000000000000000000000000000000000000000000000815260040180806020018281038252601f8152602001807f43616e206f6e6c792062652063616c6c656420627920746865206f776e65720081525060200191505060405180910390fd5b600073ffffffffffffffffffffffffffffffffffffffff168173ffffffffffffffffffffffffffffffffffffffff16141561022e576040517f08c379a00000000000000000000000000000000000000000000000000000000081526004018080602001828103825260118152602001807f6e65774f776e657220697320656d70747900000000000000000000000000000081525060200191505060405180910390fd5b806000806101000a81548173ffffffffffffffffffffffffffffffffffffffff021916908373ffffffffffffffffffffffffffffffffffffffff1602179055506000809054906101000a900473ffffffffffffffffffffffffffffffffffffffff1673ffffffffffffffffffffffffffffffffffffffff163373ffffffffffffffffffffffffffffffffffffffff167fe516f4dd5cedc9fa569ffc0fe731ed5801fb5ff4a1860847fe1c7db3c590c55160405160405180910390a350565b60008060009054906101000a900473ffffffffffffffffffffffffffffffffffffffff1690509056fea165627a7a72305820186e59a1ba37d895066704ac008a5bb1eabf9d4fa4b0362e49bf3f1e209774b60029",
  "source": "pragma solidity >= 0.5.0 <6.0.0;\n\n\ncontract Ownable {\n\n  address private owner;\n\n  constructor() public {\n    owner = msg.sender;\n  }\n\n  modifier onlyOwner(){\n    require(msg.sender == owner, \"Can only be called by the owner\");\n    _;\n  }\n\n  event LogOwnerChange(\n    address indexed sender,\n    address indexed owner\n  );\n\n  function getOwner() public view returns(address){\n    return owner;\n  }\n\n  function setOwner(address newOwner) public onlyOwner(){\n    require(newOwner != address(0), \"newOwner is empty\");\n    owner = newOwner;\n    emit LogOwnerChange(msg.sender, owner);\n  }\n\n}\n",
  "sourcePath": "/home/mad/personal/b9lab/ethereum/module-5/contracts/Ownable.sol",
  "compiler": {
    "name": "solc",
    "version": "0.5.8+commit.23d335f2.Emscripten.clang"
  },
  "schemaVersion": "3.0.10",
  "updatedAt": "2019-06-03T14:49:34.976Z",
  "devdoc": {
    "methods": {}
  },
  "userdoc": {
    "methods": {}
  }
}