{
  "contractName": "Splitter",
  "abi": [
    {
      "constant": false,
      "inputs": [],
      "name": "resume",
      "outputs": [],
      "payable": false,
      "stateMutability": "nonpayable",
      "type": "function"
    },
    {
      "constant": false,
      "inputs": [
        {
          "name": "newOwner",
          "type": "address"
        }
      ],
      "name": "setOwner",
      "outputs": [],
      "payable": false,
      "stateMutability": "nonpayable",
      "type": "function"
    },
    {
      "constant": true,
      "inputs": [
        {
          "name": "",
          "type": "address"
        }
      ],
      "name": "balances",
      "outputs": [
        {
          "name": "",
          "type": "uint256"
        }
      ],
      "payable": false,
      "stateMutability": "view",
      "type": "function"
    },
    {
      "constant": false,
      "inputs": [],
      "name": "kill",
      "outputs": [],
      "payable": false,
      "stateMutability": "nonpayable",
      "type": "function"
    },
    {
      "constant": false,
      "inputs": [],
      "name": "pause",
      "outputs": [],
      "payable": false,
      "stateMutability": "nonpayable",
      "type": "function"
    },
    {
      "constant": true,
      "inputs": [],
      "name": "getOwner",
      "outputs": [
        {
          "name": "",
          "type": "address"
        }
      ],
      "payable": false,
      "stateMutability": "view",
      "type": "function"
    },
    {
      "constant": true,
      "inputs": [],
      "name": "isDead",
      "outputs": [
        {
          "name": "",
          "type": "bool"
        }
      ],
      "payable": false,
      "stateMutability": "view",
      "type": "function"
    },
    {
      "constant": true,
      "inputs": [],
      "name": "isPaused",
      "outputs": [
        {
          "name": "",
          "type": "bool"
        }
      ],
      "payable": false,
      "stateMutability": "view",
      "type": "function"
    },
    {
      "inputs": [
        {
          "name": "startPaused",
          "type": "bool"
        }
      ],
      "payable": false,
      "stateMutability": "nonpayable",
      "type": "constructor"
    },
    {
      "payable": false,
      "stateMutability": "nonpayable",
      "type": "fallback"
    },
    {
      "anonymous": false,
      "inputs": [
        {
          "indexed": true,
          "name": "sender",
          "type": "address"
        },
        {
          "indexed": true,
          "name": "receiver",
          "type": "address"
        },
        {
          "indexed": false,
          "name": "amount",
          "type": "uint256"
        }
      ],
      "name": "LogBalanceIncreased",
      "type": "event"
    },
    {
      "anonymous": false,
      "inputs": [
        {
          "indexed": true,
          "name": "sender",
          "type": "address"
        },
        {
          "indexed": false,
          "name": "amount",
          "type": "uint256"
        }
      ],
      "name": "LogBalanceWithdrawn",
      "type": "event"
    },
    {
      "anonymous": false,
      "inputs": [
        {
          "indexed": true,
          "name": "sender",
          "type": "address"
        },
        {
          "indexed": false,
          "name": "state",
          "type": "bool"
        }
      ],
      "name": "LogPaused",
      "type": "event"
    },
    {
      "anonymous": false,
      "inputs": [
        {
          "indexed": true,
          "name": "sender",
          "type": "address"
        }
      ],
      "name": "LogKilled",
      "type": "event"
    },
    {
      "anonymous": false,
      "inputs": [
        {
          "indexed": true,
          "name": "sender",
          "type": "address"
        },
        {
          "indexed": true,
          "name": "newOwner",
          "type": "address"
        }
      ],
      "name": "LogOwnerChanged",
      "type": "event"
    },
    {
      "constant": false,
      "inputs": [
        {
          "name": "receiver1",
          "type": "address"
        },
        {
          "name": "receiver2",
          "type": "address"
        }
      ],
      "name": "splitEther",
      "outputs": [
        {
          "name": "",
          "type": "bool"
        }
      ],
      "payable": true,
      "stateMutability": "payable",
      "type": "function"
    },
    {
      "constant": false,
      "inputs": [
        {
          "name": "amount",
          "type": "uint256"
        }
      ],
      "name": "withdrawEther",
      "outputs": [
        {
          "name": "",
          "type": "bool"
        }
      ],
      "payable": false,
      "stateMutability": "nonpayable",
      "type": "function"
    }
  ],
  "bytecode": "0x608060405234801561001057600080fd5b506040516020806111a38339810180604052602081101561003057600080fd5b810190808051906020019092919050505080336000806101000a81548173ffffffffffffffffffffffffffffffffffffffff021916908373ffffffffffffffffffffffffffffffffffffffff16021790555080600060146101000a81548160ff02191690831515021790555050506110f6806100ad6000396000f3fe6080604052600436106100915760003560e01c806369b08d7d1161005957806369b08d7d146101da5780638456cb5914610256578063893d20e81461026d57806399baa10c146102c4578063b187bd26146102f357610091565b8063046f7da2146100a357806313af4035146100ba57806327e235e31461010b5780633bed33ce1461017057806341c0e1b5146101c3575b34801561009d57600080fd5b50600080fd5b3480156100af57600080fd5b506100b8610322565b005b3480156100c657600080fd5b50610109600480360360208110156100dd57600080fd5b81019080803573ffffffffffffffffffffffffffffffffffffffff1690602001909291905050506104ef565b005b34801561011757600080fd5b5061015a6004803603602081101561012e57600080fd5b81019080803573ffffffffffffffffffffffffffffffffffffffff1690602001909291905050506106f1565b6040518082815260200191505060405180910390f35b34801561017c57600080fd5b506101a96004803603602081101561019357600080fd5b8101908080359060200190929190505050610709565b604051808215151515815260200191505060405180910390f35b3480156101cf57600080fd5b506101d8610956565b005b61023c600480360360408110156101f057600080fd5b81019080803573ffffffffffffffffffffffffffffffffffffffff169060200190929190803573ffffffffffffffffffffffffffffffffffffffff169060200190929190505050610b14565b604051808215151515815260200191505060405180910390f35b34801561026257600080fd5b5061026b610c08565b005b34801561027957600080fd5b50610282610dd7565b604051808273ffffffffffffffffffffffffffffffffffffffff1673ffffffffffffffffffffffffffffffffffffffff16815260200191505060405180910390f35b3480156102d057600080fd5b506102d9610e00565b604051808215151515815260200191505060405180910390f35b3480156102ff57600080fd5b50610308610e16565b604051808215151515815260200191505060405180910390f35b600060159054906101000a900460ff161561033c57600080fd5b6000809054906101000a900473ffffffffffffffffffffffffffffffffffffffff1673ffffffffffffffffffffffffffffffffffffffff163373ffffffffffffffffffffffffffffffffffffffff16146103fe576040517f08c379a000000000000000000000000000000000000000000000000000000000815260040180806020018281038252601f8152602001807f43616e206f6e6c792062652063616c6c656420627920746865206f776e65720081525060200191505060405180910390fd5b600060149054906101000a900460ff16610480576040517f08c379a000000000000000000000000000000000000000000000000000000000815260040180806020018281038252601b8152602001807f54686520636f6e7472616374206d75737420626520706175736564000000000081525060200191505060405180910390fd5b60008060146101000a81548160ff0219169083151502179055503373ffffffffffffffffffffffffffffffffffffffff167f9885b484a3068de5c38fb9073ed8489371efc9514b9a174a9cd1df5326d2e4546000604051808215151515815260200191505060405180910390a2565b6000809054906101000a900473ffffffffffffffffffffffffffffffffffffffff1673ffffffffffffffffffffffffffffffffffffffff163373ffffffffffffffffffffffffffffffffffffffff16146105b1576040517f08c379a000000000000000000000000000000000000000000000000000000000815260040180806020018281038252601f8152602001807f43616e206f6e6c792062652063616c6c656420627920746865206f776e65720081525060200191505060405180910390fd5b600073ffffffffffffffffffffffffffffffffffffffff168173ffffffffffffffffffffffffffffffffffffffff161415610654576040517f08c379a00000000000000000000000000000000000000000000000000000000081526004018080602001828103825260118152602001807f6e65774f776e657220697320656d70747900000000000000000000000000000081525060200191505060405180910390fd5b806000806101000a81548173ffffffffffffffffffffffffffffffffffffffff021916908373ffffffffffffffffffffffffffffffffffffffff1602179055508073ffffffffffffffffffffffffffffffffffffffff163373ffffffffffffffffffffffffffffffffffffffff167ffcf23a92150d56e85e3a3d33b357493246e55783095eb6a733eb8439ffc752c860405160405180910390a350565b60016020528060005260406000206000915090505481565b60008060159054906101000a900460ff161561072457600080fd5b600060149054906101000a900460ff16156107a7576040517f08c379a00000000000000000000000000000000000000000000000000000000081526004018080602001828103825260168152602001807f54686520636f6e7472616374206973207061757365640000000000000000000081525060200191505060405180910390fd5b6000600160003373ffffffffffffffffffffffffffffffffffffffff1673ffffffffffffffffffffffffffffffffffffffff16815260200190815260200160002054905082811015610861576040517f08c379a00000000000000000000000000000000000000000000000000000000081526004018080602001828103825260128152602001807f4e6f7420656e6f7567682062616c616e6365000000000000000000000000000081525060200191505060405180910390fd5b6108748382610e2c90919063ffffffff16565b600160003373ffffffffffffffffffffffffffffffffffffffff1673ffffffffffffffffffffffffffffffffffffffff168152602001908152602001600020819055503373ffffffffffffffffffffffffffffffffffffffff167fb12f6e93c65890804242cddfedfcf792325dc0dbc88ed1a8b9b3adab358fb178846040518082815260200191505060405180910390a23373ffffffffffffffffffffffffffffffffffffffff166108fc849081150290604051600060405180830381858888f1935050505015801561094b573d6000803e3d6000fd5b506001915050919050565b600060159054906101000a900460ff161561097057600080fd5b6000809054906101000a900473ffffffffffffffffffffffffffffffffffffffff1673ffffffffffffffffffffffffffffffffffffffff163373ffffffffffffffffffffffffffffffffffffffff1614610a32576040517f08c379a000000000000000000000000000000000000000000000000000000000815260040180806020018281038252601f8152602001807f43616e206f6e6c792062652063616c6c656420627920746865206f776e65720081525060200191505060405180910390fd5b600060149054906101000a900460ff16610ab4576040517f08c379a000000000000000000000000000000000000000000000000000000000815260040180806020018281038252601b8152602001807f54686520636f6e7472616374206d75737420626520706175736564000000000081525060200191505060405180910390fd5b6001600060156101000a81548160ff0219169083151502179055503373ffffffffffffffffffffffffffffffffffffffff167fdd1d1672156846fdc9d6e65d5701535f177a41834051f5f7328be7f4252bcb3160405160405180910390a2565b60008060159054906101000a900460ff1615610b2f57600080fd5b600060149054906101000a900460ff1615610bb2576040517f08c379a00000000000000000000000000000000000000000000000000000000081526004018080602001828103825260168152602001807f54686520636f6e7472616374206973207061757365640000000000000000000081525060200191505060405180910390fd5b6000610bc8600234610eb590919063ffffffff16565b9050610bd48482610f44565b610bde8382610f44565b600160023481610bea57fe5b061415610bfd57610bfc336001610f44565b5b600191505092915050565b600060159054906101000a900460ff1615610c2257600080fd5b6000809054906101000a900473ffffffffffffffffffffffffffffffffffffffff1673ffffffffffffffffffffffffffffffffffffffff163373ffffffffffffffffffffffffffffffffffffffff1614610ce4576040517f08c379a000000000000000000000000000000000000000000000000000000000815260040180806020018281038252601f8152602001807f43616e206f6e6c792062652063616c6c656420627920746865206f776e65720081525060200191505060405180910390fd5b600060149054906101000a900460ff1615610d67576040517f08c379a00000000000000000000000000000000000000000000000000000000081526004018080602001828103825260168152602001807f54686520636f6e7472616374206973207061757365640000000000000000000081525060200191505060405180910390fd5b6001600060146101000a81548160ff0219169083151502179055503373ffffffffffffffffffffffffffffffffffffffff167f9885b484a3068de5c38fb9073ed8489371efc9514b9a174a9cd1df5326d2e4546001604051808215151515815260200191505060405180910390a2565b60008060009054906101000a900473ffffffffffffffffffffffffffffffffffffffff16905090565b60008060159054906101000a900460ff16905090565b60008060149054906101000a900460ff16905090565b600082821115610ea4576040517f08c379a000000000000000000000000000000000000000000000000000000000815260040180806020018281038252601e8152602001807f536166654d6174683a207375627472616374696f6e206f766572666c6f77000081525060200191505060405180910390fd5b600082840390508091505092915050565b6000808211610f2c576040517f08c379a000000000000000000000000000000000000000000000000000000000815260040180806020018281038252601a8152602001807f536166654d6174683a206469766973696f6e206279207a65726f00000000000081525060200191505060405180910390fd5b6000828481610f3757fe5b0490508091505092915050565b610f9681600160008573ffffffffffffffffffffffffffffffffffffffff1673ffffffffffffffffffffffffffffffffffffffff1681526020019081526020016000205461104290919063ffffffff16565b600160008473ffffffffffffffffffffffffffffffffffffffff1673ffffffffffffffffffffffffffffffffffffffff168152602001908152602001600020819055508173ffffffffffffffffffffffffffffffffffffffff163373ffffffffffffffffffffffffffffffffffffffff167f8d6dc51e8945c5e6a4ddb872612ec2b1f5e375a97daebdbb6a03a64e7c659209836040518082815260200191505060405180910390a35050565b6000808284019050838110156110c0576040517f08c379a000000000000000000000000000000000000000000000000000000000815260040180806020018281038252601b8152602001807f536166654d6174683a206164646974696f6e206f766572666c6f77000000000081525060200191505060405180910390fd5b809150509291505056fea165627a7a72305820a4ad78775da13cac4ca27a2f51402db588fd1b53a21c4a6b6894254d457b5fba0029",
  "source": "pragma solidity >= 0.5.0 <6.0.0;\n\nimport \"./SafeMath.sol\";\nimport \"./Pausable.sol\";\n\ncontract Splitter is Pausable {\n  using SafeMath for uint256;\n\n  mapping(address => uint) public balances;\n\n  event LogBalanceIncreased(\n    address indexed sender,\n    address indexed receiver,\n    uint256 amount\n  );\n\n  event LogBalanceWithdrawn(\n    address indexed sender,\n    uint256 amount\n  );\n\n  constructor(bool startPaused) Pausable(startPaused) public {}\n\n  function splitEther(address receiver1, address receiver2) public payable mustBeAlive mustBeRunning returns (bool) {\n\n    uint256 splittedAmount = msg.value.div(2); // Split the ether\n\n    // Update balances\n    addBalance(receiver1, splittedAmount);\n    addBalance(receiver2, splittedAmount);\n\n    // Refund remainder\n    if(msg.value % 2 == 1) {\n      addBalance(msg.sender, 1);\n    }\n\n    return true;\n  }\n\n  function addBalance(address to, uint256 amount) private {\n    balances[to] = balances[to].add(amount);\n\n    emit LogBalanceIncreased(\n      msg.sender,\n      to,\n      amount\n    );\n  }\n\n  function withdrawEther(uint amount) public mustBeAlive mustBeRunning returns (bool) {\n    uint balance = balances[msg.sender];\n    require(balance >= amount, \"Not enough balance\");\n    balances[msg.sender] = balance.sub(amount);\n    emit LogBalanceWithdrawn(msg.sender, amount);\n    msg.sender.transfer(amount);\n    return true;\n  }\n\n  function() external {\n    revert();\n  }\n\n}\n",
  "sourcePath": "/home/mad/personal/b9lab/ethereum/module-5/contracts/Splitter.sol",
  "compiler": {
    "name": "solc",
    "version": "0.5.7+commit.6da8b019.Emscripten.clang"
  },
  "schemaVersion": "3.0.10",
  "updatedAt": "2019-06-15T17:10:06.457Z",
  "devdoc": {
    "methods": {}
  },
  "userdoc": {
    "methods": {}
  }
}